:03000000020026D5
:0C002600787FE4F6D8FD75816502006D5E
:10000E004D4355205354415254204F4B210D0A005D
:10029600C104012104022A0000012C00012E0008DD
:1002A6002200000000000000000B3A0000000000E1
:1002B60000000000000008320000000000000000FE
:1002C60020204500000000000000000000000000A3
:1002D6000000000000000000000000000000000018
:0302E60000000015
:1000B200E4F5B175B208C2B275C124120438E5A2E2
:1000C200543FF5A2759850120419D2ACD2AF7BFFFF
:1000D2007A00790E1203F4300230E5226521702A8B
:1000E200FB7A0079227D06FC1201C0EFB5281BEED7
:1000F200FF3395E0EFB52912E52324FA60092403C2
:10010200700812036180031203C9300005C2001295
:10011200022C43C110AE2AAF2BE4FCFD7BFF7AFF19
:10012200F9F8C31203B37006B2B3F52AF52B052B07
:08013200E52B70A3052A809F54
:0300230002013A9D
:10013A00C0E0C0D075D008309870C298AF2E7E004B
:10014A00EF700D859922E5226521705E052E805A91
:10015A00EF64014E7019AF99EF64036007AF99EF2E
:10016A00640670067422252E8020752E00803BAF0F
:10017A002E7E00C374019F7480F8985014C3EF94C4
:10018A000774809480500A74222FF8A699052E804D
:10019A0019C3E52E940774809480400E7422252E8C
:1001AA00F8A699C204752E00D202309904C299C2E7
:0601BA0003D0D0D0E032BA
:080003002003FDD2038F9922B6
:1003F4008B108A118912AB10AA11A91212039A60E8
:10040400130512E5127002051114F912039AFF1272
:05041400000380E2225C
:03000B000202EA04
:1002EA00C0E0C0D03001261531E531702B753103DD
:1002FA001530E5307009852D2FC201D2008019E52D
:10030A002DC313F52D30CD10432D80800B20CD0841
:0D031A00D201753104753009D0D0D0E03229
:08043800C201C200E4F531220B
:10041900E4F589758A80758CFE75D7E075D6FE7509
:0F0429008E14438E01438E80D28CD2A9D2B92279
:10022C00AF2C7E00EF7008E52F64427002803FEF28
:10023C0064014E7008E52F644D70028031AF2CD3F1
:10024C00EF940174809480402FEF941F74809480FD
:10025C00502674452FF8E6644D701374442FF8E65D
:10026C006442700A752C0175454275464D227445E1
:10027C00252CF8A62F052C22C3E52C941F748094F2
:0A028C00804006852F64E4F52C2263
:1003610085213A753B03753C06854F3D85503E8599
:10037100513F8552408553418554427B007A007933
:100381003A7D097C001201C08F438E447B007A00C4
:09039100793A7D0B7C0002032780
:1003C900753A04753B06E4F53CF53DF53EF53FFB12
:1003D9007A0079327D06FC1201C08F408E417B0084
:0B03E9007A0079327D087C00020327B7
:040327008C108D1198
:10032B00D2B20000E4FFFEC3EF9511E5106480F834
:10033B00EE648098501B12039AF5993099FD309911
:10034B0002C299740129F9E43AFA0FBF00010E8039
:05035B00D6C2B2C2028F
:01036000227A
:0401C0008C108D1101
:1001C40074FFF514F515E4F512F513C3E513951151
:1001D400E5106480F8E512648098504712039A622F
:1001E40015E40429F9E43AFAE4FDFCE51530E013DA
:1001F400E514C313F514E51513F51563150163141C
:10020400A0800BE514C313F514E51513F5150DBD06
:1002140000010CED64084C70D20513E51370AC05B5
:070224001280A8AE14AF1513
:01022B0022B0
:100032000200B2E493A3F8E493A34003F68001F232
:1000420008DFF48029E493A3F85407240CC8C333CF
:10005200C4540F4420C8834004F456800146F6DF9E
:10006200E4800B0102040810204080900296E47E96
:10007200019360BCA3FF543F30E509541FFEE49393
:10008200A360010ECF54C025E060A840B8E493A35A
:10009200FAE493A3F8E493A3C8C582C8CAC583CA85
:1000A200F0A3C8C582C8CAC583CADFE9DEE780BE3D
:0102E9000014
:10039A00BB010689828A83E0225002E722BBFE0261
:0903AA00E32289828A83E4932294
:1003B300EB9FF5F0EA9E42F0E99D42F0EC6480C8C1
:0603C30064809845F02261
:00000001FF
