:020000040800F2
:100000006009002045010008F5070008E506000822
:10001000F107000871030008EB2100080000000050
:10002000000000000000000000000000D50C0008E7
:10003000AF030008000000005D0900088D1A0008E9
:100040005F0100085F0100085F0100085F01000810
:100050005F0100085F0100085F0100085F01000800
:100060005F0100085F0100085F0100085F010008F0
:100070005F0100085F0100085F0100085F010008E0
:100080005F0100085F0100085F0100085F010008D0
:100090005F0100085F0100085F0100085F010008C0
:1000A0005F0100085F0100085F0100085F010008B0
:1000B000F11A0008651B00083D1C00085F010008DC
:1000C0005F0100085F0100085F0100085F01000890
:1000D0005F010008811D0008091E0008551E000868
:1000E0005F0100085F0100085F0100085F01000870
:1000F0005F0100085F0100085F0100085F01000860
:100100005F0100085F0100085F0100085F0100084F
:100110005F0100085F0100085F0100085F0100083F
:100120005F0100085F0100085F0100085F0100082F
:10013000DFF80CD000F0C0F8004800476123000849
:10014000600900200648804706480047FEE7FEE7B2
:10015000FEE7FEE7FEE7FEE7FEE7FEE7FEE7FEE777
:10016000911A00083101000840EA01039B0703D0FF
:1001700009E008C9121F08C0042AFAD203E011F8E6
:10018000013B00F8013B521EF9D27047D2B201E0A8
:1001900000F8012B491EFBD270470022F6E710B58C
:1001A00013460A4604461946FFF7F0FF204610BDE5
:1001B0000EB540F2334102910021CDE900110A460B
:1001C0000B4600F02AF803B000BD000030B5041E55
:1001D00071F1000404DB4FF00044404264EB010184
:1001E000141E73F1000405DB1C464FF0004352421D
:1001F00063EB04038B4208BF824230BD10B5141E6E
:1002000073F1000408DA401C41F1000192185B41CF
:100210001A4301D120F0010010BD2DE9F04D9246A6
:100220009B4611B1B1FA81F202E0B0FA80F22032BD
:10023000904600F053F804460F4640EA0A0041EAAF
:100240000B0153465A46084313D0114653EA0100A6
:1002500019D0C8F14002504600F04FF805460E464E
:1002600050465946424600F039F8084305D001206F
:1002700004E020463946BDE8F08D0020054346EAFB
:10028000E0762C4337430A986305E40AA0EB0800A4
:100290000022FD0A44EA47540A3002D500200146F4
:1002A000E9E7010510196941DDE9084500196941CF
:1002B000BDE8F04DA2E70000064C074D06E0E068FF
:1002C00040F0010394E8070098471034AC42F6D39D
:1002D000FFF732FF3824000858240008202A04DBE6
:1002E000203A00FA02F1002070479140C2F1200349
:1002F00020FA03F3194390407047202A04DB203A88
:1003000021FA02F00021704721FA02F3D040C2F135
:100310002002914008431946704770B58C1810F8B8
:10032000015B15F0070301D110F8013B2A1106D13A
:1003300010F8012B03E010F8016B01F8016B5B1E54
:10034000F9D12B0705D40023521E0DD401F8013B2F
:10035000FAE710F8013BCB1A921C03E013F8015B9B
:1003600001F8015B521EF9D5A142D8D3002070BD1F
:1003700000BFFEE770B502460C464FF6FF7100263F
:1003800011E013785940521C002509E001F00100EA
:1003900020B149084AF20100414000E049086D1CC3
:1003A000082DF3DB761CA642EBDB88B270BD7047EC
:1003B00030B58BB00446002536A103C9CDE9010153
:1003C000202103A8FFF7E9FE002034490880082116
:1003D00001A800F067F81F2103A800F0A1FB002886
:1003E00050D19DF80C00012851D11D2103A8FFF721
:1003F000C1FF0546E8B29DF8291088423BD19DF81F
:100400002A00B0EB152F36D1002060802080A0801C
:1004100060889DF80F100843608060884FF6FF7178
:1004200001EA0020608060889DF810100843608019
:1004300020889DF811100843208020884FF6FF7116
:1004400001EA0020208020889DF8121008432080B7
:10045000A0889DF827100843A080A0884FF6FF7160
:1004600001EA0020A080A0889DF828100843A08001
:1004700000200BB030BD0A48016821608088A08050
:100480000120F6E70648016821608088A0800120ED
:10049000EFE7000001030000000D840F5A00002068
:1004A0002600002070B504460D462946204600F07F
:1004B0005FFB70BD2DE9F0410246002500260020BB
:1004C00000230024002791F803C00CF00F0591F8D9
:1004D00003C00CF0100CBCF1000F03D091F802C067
:1004E0004CEA050591F800C0BCF1000F31D014684A
:1004F00000202BE04FF0010C0CFA00F3B1F800C023
:100500000CEA03069E4220D183004FF00F0C0CFA38
:1005100003F7BC4305FA03FC4CEA040491F803C05A
:10052000BCF1280F06D14FF0010C0CFA00FCC2F808
:1005300014C00AE091F803C0BCF1480F05D14FF098
:10054000010C0CFA00FCC2F810C0401C0828D1D3E2
:100550001460B1F800C0BCF1FF0F34DD5468002016
:100560002EE000F1080C4FF0010808FA0CF3B1F886
:1005700000C00CEA03069E4221D183004FF00F0C0D
:100580000CFA03F7BC4305FA03FC4CEA040491F8A7
:1005900003C0BCF1280F05D100F1080C08FA0CF8D3
:1005A000C2F8148091F803C0BCF1480F07D100F1E4
:1005B000080C4FF0010808FA0CF8C2F81080401C33
:1005C0000828CED35460BDE8F08101617047000077
:1005D00070B50446022C01DC002070BD022C03DD46
:1005E000102C01DC0120F8E7102C03DD222C01DCAB
:1005F0000220F2E7222C03DD372C01DC0320ECE79C
:10060000372C03DD502C01DC0420E6E7502C03DD01
:100610006C2C01DC0520E0E76C2C03DD8B2C01DC6D
:100620000620DAE78B2C03DDAC2C01DC0720D4E7B5
:10063000AC2C03DDD02C01DC0820CEE7D02C03DD70
:10064000F52C01DC0920C8E7F52C04DDB4F58F7F1B
:1006500001DA0A20C1E740F21D1084420ADD20467B
:10066000FFF7A6FD05461D4A1D4BFFF7AFFD01D85C
:100670000B20B2E7B4F5A37F04DDB4F5B97F01DC4C
:100680000C20AAE7B4F5B97F04DDB4F5CF7F01DC17
:100690000D20A2E7B4F5CF7F04DDB4F5E77F01DAE2
:1006A0000E209AE740F2CD10844204DDB4F5FF7FBE
:1006B00001DA0F2091E740F2FD10844204DDB4F529
:1006C0000C7F01DC102088E7B4F50C7F04DDB4F565
:1006D000197F01DC112080E72D207EE7CDCCCCCC2A
:1006E000CC4C404000BFFEE74CF6CC4001490860CE
:1006F000704700000030004010B500F013F810BD46
:1007000070B505460C4645F2555000F01FF82846D6
:1007100000F010F8204600F013F800F003F8FFF79F
:10072000E3FF70BD4AF6AA20014908607047000047
:100730000030004001494860704700000030004030
:10074000014988607047000000300040014908609E
:10075000704700000030004008B50121082000F07B
:100760004FF97020ADF8000010208DF80300032031
:100770008DF8020069460448FFF79CFE702102488C
:10078000FFF723FF08BD0000000C014000B585B055
:10079000142205A16846FFF7E7FC1121684600F026
:1007A000E7F9012005B000BDAAA509000101123436
:1007B000B0A17A000100005A5500000070B504464F
:1007C0000D462946204600F0D3F970BD10B502460B
:1007D000002106E0535C01F12A00044C2354481C1C
:1007E000C1B23029F6DB002010BD000062000020FD
:1007F00000BFFEE77047000070B5002100230F2204
:10080000C47804B3154C246804F4E064C4F5E064CF
:10081000210AC1F10403CA40447804FA03F1847840
:100820001440214309010E4C0678A155047804F0C8
:100830001F050124AC4005786D11AD0005F1E025E0
:10084000C5F8004109E0047804F01F050124AC401C
:10085000044D0678761145F8264070BD0CED00E099
:1008600000E400E080E100E030B585B004460025FA
:1008700032A103C9CDE900010821684600F066F8FD
:10088000142001F0F3FC0B2102A800F049F9002824
:100890004DD1092102A8FFF76DFD0546E8B29DF88C
:1008A000111088423CD19DF81200B0EB152F37D1C2
:1008B0000020244908804880888020889DF80B10FB
:1008C0000843208020884FF6FF7101EA0020208035
:1008D00020889DF80C100843208060889DF80D103A
:1008E0000843608060884FF6FF7101EA0020608055
:1008F00060889DF80E100843608020889DF80F10D6
:1009000008432080A0884FF6FF7101EA0020A080F4
:10091000A0889DF810100843A080002005B030BDCD
:100920000948016821608088A0800120F6E7064818
:10093000016821608088A0800120EFE704030000A7
:100940000006C59D200000202C00002070B5044644
:100950000D462946204600F00BF970BD704710B5D2
:1009600004462088002100F077FC6088012100F017
:10097000B3F9A088022100F043FA002010BD10B5A1
:1009800004462088002100F057FB6088012100F018
:10099000DBFBA088022100F0C7FA002010BD10B5D3
:1009A00004462088002100F08FFE6088012100F0BD
:1009B00003FDA088022100F0F9FD002010BD000019
:1009C00029B1064AD2690243044BDA6104E0034AC2
:1009D000D2698243014BDA61704700000010024087
:1009E00029B1064A12690243044B1A6104E0034A22
:1009F00012698243014B1A617047000000100240E7
:100A000029B1064A92690243044B9A6104E0034A01
:100A100092698243014B9A617047000000100240C6
:100A200029B1064AD2680243044BDA6004E0034A63
:100A3000D2688243014BDA60704700000010024028
:100A400030B500210022002400232D4D6D6805F0F3
:100A50000C0121B1042905D0082923D105E0294D35
:100A6000056022E0274D05601FE0254D6D6805F407
:100A70007012234D6D6805F48034022505EB924217
:100A80001CB9214D554305600BE01D4D6D6805F403
:100A900000351DB11C4D5543056002E0194D55430D
:100AA000056002E0174D056000BF00BF144D6D6882
:100AB00005F0F0010909154D6B5C0568DD404560E6
:100AC0000F4D6D6805F4E061090A104D6B5C4568D7
:100AD000DD4085600A4D6D6805F46051C90A0B4D13
:100AE0006B5C4568DD40C560054D6D6805F44041AF
:100AF000890B074D6B5CC568B5FBF3F5056130BD2F
:100B00000010024000127A0000093D003B00002066
:100B10004B00002010B50446204601F0C1F910BD7D
:100B200070B505460C46322621462846FFF735FBB0
:100B300015E00D480078A0420CD1002104E00B48DC
:100B4000405C6854481CC1B2A142F8DB0020064A50
:100B5000108070BD042001F089FB701EC6B2002E0B
:100B6000E7D10020F5E700005A0000202002002015
:100B700070B504460D46012007490860962001F033
:100B80009BFB2946204601F0EDF900200349C1F8FE
:100B900084010349088070BD848121420080214284
:100BA0005A00002010B50548FFF75EFE044801F02A
:100BB0001EFB0448FFF7FCFB002010BD20000020B6
:100BC000140000201A0000207FB5002500241DA17C
:100BD00003C9CDE900010821684600F0BFFE1420DA
:100BE00001F044FB072102A8FFF79AFF30BB9DF8F4
:100BF000080002281FD1052102A8FFF7BBFB05460C
:100C0000E8B29DF80D10884212D19DF80E00B0EBAD
:100C1000152F0DD100BF9DF80B0004434FF6FF7058
:100C200000EA04249DF80C000443204604B070BD83
:100C300006484088FAE705484088F7E703484088B7
:100C4000F4E70000020400030001C1F914000020D1
:100C500030B585B01CA103C9CDE900010821684663
:100C600000F084FE052001F001FB092102A8FFF736
:100C700057FF30BB9DF8080003281FD1072102A8A9
:100C8000FFF778FB0546E8B29DF80F10884212D1B5
:100C90009DF81000B0EB152F0DD100249DF80D002C
:100CA00004434FF6FF7000EA04249DF80E0004434D
:100CB000204605B030BD06480088FAE704480088A1
:100CC000F7E703480088F4E7030306000002C56164
:100CD00014000020704700002DE9FC4106460D4637
:100CE0000C4903C9CDE900012807070E69463046C3
:100CF00000F014F8002407E01DF80410B81D20448B
:100D0000054A1154601CC4B2052CF5DB0020BDE877
:100D1000FC81000028240008C80000202DE9F041D3
:100D200005460C4615B93020A07066E0284601F053
:100D3000E9FA06463046012E04D0022812D00328D4
:100D400059D12CE00A2095FBF0F100FB115087B23D
:100D50000122211D384601F0E3FA2E20E0703020F8
:100D6000A07049E00A2095FBF0F100FB115087B21A
:100D70000122211D384601F0D3FA0A2095FBF0F03C
:100D800085B22E20E0700A2095FBF0F100FB115097
:100D900087B20122A11C384601F0C2FA2CE00A20D9
:100DA00095FBF0F100FB115087B20122211D38465E
:100DB00001F0B6FA0A2095FBF0F085B22E20E07023
:100DC0000A2095FBF0F100FB115087B20122A11C13
:100DD000384601F0A5FA0A2095FBF0F085B20A200A
:100DE00095FBF0F100FB115087B20122611C3846DF
:100DF00001F096FA00E000BF00BFBDE8F0810000FE
:100E00002DE9FC4106460D460C4903C9CDE9000118
:100E10002807070E6946304600F014F8002407E062
:100E20001DF80410B81D2044054A1154601CC4B2BA
:100E3000052CF5DB0020BDE8FC8100003024000813
:100E4000C80000202DE9F04105460C4615B93020B8
:100E5000A07066E0284601F055FA06463046012E9D
:100E600004D0022812D0032859D12CE00A2095FB87
:100E7000F0F100FB115087B20122211D384601F02C
:100E80004FFA2E20E0703020A07049E00A2095FB38
:100E9000F0F100FB115087B20122211D384601F00C
:100EA0003FFA0A2095FBF0F085B22E20E0700A2070
:100EB00095FBF0F100FB115087B20122A11C3846CE
:100EC00001F02EFA2CE00A2095FBF0F100FB115006
:100ED00087B20122211D384601F022FA0A2095FB33
:100EE000F0F085B22E20E0700A2095FBF0F100FBB7
:100EF000115087B20122A11C384601F011FA0A20D4
:100F000095FBF0F085B20A2095FBF0F100FB115043
:100F100087B20122611C384601F002FA00E000BFEE
:100F200000BFBDE8F08100002DE9FC4106460D46FA
:100F30000CA103C9CDE900012807070E6946304618
:100F400000F016F8002407E01DF80410781D204476
:100F5000064A1154601CC4B2052CF5DB0020BDE824
:100F6000FC8100002020202020000000F80000204C
:100F70002DE9F04104460D46204601F0C3F906462E
:100F8000012E04D0022E0ED0032E51D126E00A20CD
:100F900094FBF0F100FB114087B20122A91C3846F6
:100FA00001F0BEF945E00A2094FBF0F100FB11408E
:100FB00087B20122E91C384601F0B2F90A2094FBFD
:100FC000F0F084B20A2094FBF0F100FB114087B2EC
:100FD0000122A91C384601F0A3F92AE00A2094FB5B
:100FE000F0F100FB114087B20122E91C384601F004
:100FF00097F90A2094FBF0F084B20A2094FBF0F1F8
:1010000000FB114087B20122A91C384601F088F983
:101010000A2094FBF0F084B20A2094FBF0F100FB6C
:10102000114087B20122691C384601F079F900E0CD
:1010300000BF00BFBDE8F0812DE9FC4106460D462A
:101040000CA103C9CDE900012807070E6946304607
:1010500000F016F8002407E01DF80410781D204465
:10106000064A1154601CC4B2052CF5DB0020BDE813
:10107000FC8100002020202020000000F80000203B
:101080002DE9F04104460D46204601F03BF90646A5
:10109000012E04D0022E0ED0032E51D126E00A20BC
:1010A00094FBF0F100FB114087B20122A91C3846E5
:1010B00001F036F945E00A2094FBF0F100FB114005
:1010C00087B20122E91C384601F02AF90A2094FB74
:1010D000F0F084B20A2094FBF0F100FB114087B2DB
:1010E0000122A91C384601F01BF92AE00A2094FBD2
:1010F000F0F100FB114087B20122E91C384601F0F3
:101100000FF90A2094FBF0F084B20A2094FBF0F16E
:1011100000FB114087B20122A91C384601F000F9FA
:101120000A2094FBF0F084B20A2094FBF0F100FB5B
:10113000114087B20122691C384601F0F1F800E045
:1011400000BF00BFBDE8F0812DE9FC4106460D4619
:101150000CA103C9CDE900012807070E69463046F6
:1011600000F016F8002407E01DF80410781D204454
:10117000064A1154601CC4B2052CF5DB0020BDE802
:10118000FC8100002020202020000000F80000202A
:101190002DE9F04104460D46204601F0B3F806461D
:1011A000012E04D0022E0ED0032E51D126E00A20AB
:1011B00094FBF0F100FB114087B20122A91C3846D4
:1011C00001F0AEF845E00A2094FBF0F100FB11407D
:1011D00087B20122E91C384601F0A2F80A2094FBEC
:1011E000F0F084B20A2094FBF0F100FB114087B2CA
:1011F0000122A91C384601F093F82AE00A2094FB4A
:10120000F0F100FB114087B20122E91C384601F0E1
:1012100087F80A2094FBF0F084B20A2094FBF0F1E6
:1012200000FB114087B20122A91C384601F078F872
:101230000A2094FBF0F084B20A2094FBF0F100FB4A
:10124000114087B20122691C384601F069F800E0BC
:1012500000BF00BFBDE8F0812DE9FC4106460D4608
:101260000C4903C9CDE900012807070E694630463D
:1012700000F014F8002407E01DF80410B81D204405
:10128000054A1154601CC4B2052CF5DB0020BDE8F2
:10129000FC81000020240008C80000202DE9F04156
:1012A00005460C46002705F4004018B1681EC043EF
:1012B00085B2012715B93020A0707BE0284601F0E7
:1012C00021F806463046012E04D0022818D0032803
:1012D0006ED139E00A2095FBF0F100FB11501FFAA6
:1012E00080F80122211D404601F01AF82E20E070FE
:1012F0003020A0700FB12D2000E02020607058E059
:101300000A2095FBF0F100FB11501FFA80F8012232
:10131000211D404601F004F80A2095FBF0F085B24B
:101320002E20E0700A2095FBF0F100FB11501FFA0F
:1013300080F80122A11C404600F0F2FF0FB12D20E1
:1013400000E02020607034E00A2095FBF0F100FB03
:1013500011501FFA80F80122211D404600F0E0FFE5
:101360000A2095FBF0F085B22E20E0700A2095FB54
:10137000F0F100FB11501FFA80F80122A11C404639
:1013800000F0CEFF0A2095FBF0F085B20A2095FB15
:10139000F0F100FB11501FFA80F80122611C404659
:1013A00000F0BEFF0FB12D2000E02020207000E0F3
:1013B00000BF00BFBDE8F0817CB505460C460CA11E
:1013C00003C9CDE900012007060E6946284600F052
:1013D00015F8002307E01DF80310B01D1844064A55
:1013E0001154581CC3B2082BF5DB00207CBD000053
:1013F000202020202020202028010020102875D225
:10140000DFE800F0101F273740515A6B75868FA018
:10141000A9B9C108B122CA708A70FD224A70D522CA
:101420000A70C0E0B122CA718A71AB224A71C62229
:101430000A71B122CA708A70AB224A70B6220A7051
:10144000B1E0B122CA708A70AB224A70B6220A702B
:10145000A9E0AB22CA71B6228A71AB224A71C622B8
:101460000A71B122CA708A70AB224A70B6220A7021
:1014700099E0AB22CA70B6228A70FD224A70D5224A
:101480000A7090E0AB22CA71B6228A71AB224A710F
:10149000C6220A71CF22CA70C4228A70AB224A7057
:1014A000B6220A707FE0CF22CA70C4228A70AB22B3
:1014B0004A70B6220A7076E0CF22CA71C4228A71BD
:1014C000AB224A71C6220A71CF22CA70C4228A7026
:1014D000AB224A70B6220A7065E0CF22CA70C422DD
:1014E0008A70FD224A70D5220A705CE05AE0CF2251
:1014F000CA71C4228A71AB224A71C6220A71CF22F4
:10150000CA70C4228A70F7224A70CE220A704AE05A
:10151000CF22CA70C4228A70F7224A70CE220A7083
:1015200041E0F722CA71CE228A71AB224A71C622EB
:101530000A71CF22CA70C4228A70F7224A70CE2262
:101540000A7030E0F722CA70CE228A70FD224A70FB
:10155000D5220A7027E0F722CA71CE228A71AB2207
:101560004A71C6220A71B122CA708A70F7224A7083
:10157000CE220A7017E0B122CA708A70F7224A7030
:10158000CE220A700FE0B122CA718A71AB224A7171
:10159000C6220A71B122CA708A70F7224A70CE221E
:1015A0000A7000E000BF00BF704700002DE9FC4159
:1015B00006460D460CA103C9CDE900012807070E18
:1015C0006946304600F016F8002407E01DF80410C4
:1015D000B81D2044064A1154601CC4B2052CF5DB2A
:1015E0000020BDE8FC810000202020202000000019
:1015F000280100202DE9F04104460D4614B93020A1
:10160000A8705EE0204600F07DFE06463046012EC2
:1016100004D002280ED0032851D126E00A2094FBE2
:10162000F0F100FB114087B20122A91C384600F0FE
:1016300077FE45E00A2094FBF0F100FB114087B2F1
:101640000122E91C384600F06BFE0A2094FBF0F002
:1016500084B20A2094FBF0F100FB114087B2012212
:10166000A91C384600F05CFE2AE00A2094FBF0F149
:1016700000FB114087B20122E91C384600F050FE01
:101680000A2094FBF0F084B20A2094FBF0F100FBF6
:10169000114087B20122A91C384600F041FE0A2001
:1016A00094FBF0F084B20A2094FBF0F100FB1140AF
:1016B00087B20122691C384600F032FE00E000BF0C
:1016C00000BFBDE8F08100002DE9FC4106460D4653
:1016D0000CA103C9CDE900012807070E6946304671
:1016E00000F016F8002407E01DF80410781D2044CF
:1016F000064A1154601CC4B2052CF5DB0020BDE87D
:10170000FC81000020202020200000002801002073
:101710002DE9F04105460C46284600F0F3FD06464B
:10172000012E04D0022E12D0032E59D12CE00A2013
:1017300095FBF0F100FB115087B20122211D3846C4
:1017400000F0EEFD2E20E0703020A07049E00A206D
:1017500095FBF0F100FB115087B20122211D3846A4
:1017600000F0DEFD0A2095FBF0F085B22E20E0703F
:101770000A2095FBF0F100FB115087B20122A11C59
:10178000384600F0CDFD2CE00A2095FBF0F100FB7F
:10179000115087B20122211D384600F0C1FD0A20F8
:1017A00095FBF0F085B22E20E0700A2095FBF0F159
:1017B00000FB115087B20122A11C384600F0B0FD99
:1017C0000A2095FBF0F085B20A2095FBF0F100FBB2
:1017D000115087B20122611C384600F0A1FD00E0E3
:1017E00000BF00BFBDE8F08110B518480088184957
:1017F000098888420ED11548408815494988884291
:1018000008D11248808812498988884202D111483B
:101810000078C8B90D4800880D4908800B484088F9
:1018200048800A48808888800848FFF798F80A4866
:10183000FEF7CCFF5E210948FEF7C0FF01200549F5
:10184000087000200649087010BD00001A00002032
:10185000260000203A000020C8000020620000207E
:101860003800002010B518488088184989888842B7
:101870000ED11548008815490988884208D11248B8
:10188000408812494988884202D111480078C8B975
:101890000D4880880D4988800B48008808800A48D8
:1018A000408848800848FFF76AF80A48FEF78EFF2C
:1018B00066210948FEF782FF0120054908700020D3
:1018C0000649087010BD0000200000202C000020F8
:1018D00038000020F80000206200002039000020BD
:1018E00010B5184840881849498888420ED11548D3
:1018F000808815498988884208D112480088124991
:101900000988884202D111480078C8B90D4840883A
:101910000D4948800B48808888800A4800880880E4
:101920000848FFF73CF80A48FEF750FF66210948CF
:10193000FEF744FF012005490870002006490870A1
:1019400010BD0000140000203200002039000020EB
:1019500028010020620000203A00002070B50446F3
:101960000D4629462046FFF703F970BD70B50446C1
:101970000D4629462046FFF7FBF870BD10B500F074
:1019800001F810BD0CB500200190009033480068AC
:1019900040F480303149086000BF3048006800F4EE
:1019A000003000900198401C0190009818B90198EF
:1019B000B0F5A06FF1D12948006800F4003010B1F3
:1019C0000120009001E0002000900098012843D100
:1019D0002348006840F0100021490860084600686C
:1019E00020F0030008600846006840F0020008602C
:1019F0001A484068194948600846406848600846E7
:101A0000406840F4806048600846406820F47C10DC
:101A100048600846406840F4E8104860084600689E
:101A200040F08070086000BF0C48006800F0007053
:101A30000028F9D00948406820F0030007494860B1
:101A40000846406840F00200486000BF0348406814
:101A500000F00C000828F9D10CBD00000010024075
:101A600000200240042808D14FF0E021096941F02C
:101A700004014FF0E022116107E04FF0E021096915
:101A800021F004014FF0E02211617047704700001F
:101A900010B51348006840F001001149086008467D
:101AA0004068104908400E494860084600680E49E1
:101AB00008400B4908600846006820F48020086050
:101AC0000846406820F4FE0048604FF41F0088601C
:101AD000FFF754FF4FF000600449086010BD00009C
:101AE000001002400000FFF8FFFFF6FE08ED00E0E6
:101AF00010B50121880700F0D4F818B1012188073A
:101B000000F0C0F810BD7FB505460C46012108461F
:101B1000FEF756FFADF80850ADF804400020ADF8D0
:101B20000A00ADF8060001A94FF0804000F0D6F899
:101B300001221146900700F0C5F81C208DF8000026
:101B400000208DF8010004208DF8020001208DF89E
:101B500003006846FEF750FE0121880700F095F863
:101B60007FBD000010B50121164800F09AF858B169
:101B70000121144800F086F81348006808B90120D4
:101B800000E000201049086010480078401C0F4910
:101B900008700F480078401C0D4908700B48007809
:101BA0000A2190FBF1F00B490870094800780128E0
:101BB00005DD012008490870002005490870FEF77E
:101BC0009BFD10BD00040040948121425D00002077
:101BD0005C0000205E0000205F0000207FB505460D
:101BE0000C4601210220FEF7EBFEADF80850ADF8DF
:101BF00004400020ADF80A00ADF8060001A90E4827
:101C000000F06CF8012211460B4800F05BF81D2033
:101C10008DF8000000208DF8010003208DF80200EF
:101C200001208DF803006846FEF7E6FD0121024819
:101C300000F02BF87FBD00000004004010B501212A
:101C4000054800F02EF830B10121034800F01AF8E1
:101C5000002000F003F810BD0008004010B5044655
:101C600044B10021064800F036F80121044800F094
:101C70000CF803E00021024800F007F810BD000056
:101C800000080040CA430282704721B1028842F036
:101C90000102028004E002884FF6FE731A400280BF
:101CA000704730B50246002000230024158A05EA5B
:101CB0000103958905EA010413B10CB1012000E08C
:101CC000002030BD1AB183890B43838102E08389F0
:101CD0008B43838170478184704700000022028813
:101CE0001D4B98420ED01D4B98420BD0B0F1804F47
:101CF00008D01B4B984205D01A4B984202D01A4B81
:101D0000984204D14FF68F731A404B881A43174BF1
:101D1000984207D0164B984204D04FF6FF431A4022
:101D2000CB881A4302808B8883850B8803850A4BF6
:101D300098420BD0094B984208D00E4B984205D0E0
:101D40000D4B984202D00D4B984201D10B7A03867D
:101D50000123838270470000002C014000340140C1
:101D60000004004000080040000C0040001000404B
:101D70000014004000400140004401400048014080
:101D800010B540F225511D4800F06BF910B31B4807
:101D900000F022FAC4B21A48008800F40040C8B922
:101DA0001748008800F4804060B10A2C03D000205E
:101DB0001349088020E01248008840F40040104990
:101DC000088019E00D2C06D10D48008840F48040B1
:101DD0000B49088010E00A480088C0F30D0009494B
:101DE0000C5407480088401C0549088008460088B4
:101DF000C72801DD0020088010BD00000038014028
:101E0000580000205801002010B540F225510E481E
:101E100000F027F9B0B10C4800F0DEF9C4B20B486D
:101E20000088FF2808DC094801880088401C074A10
:101E300010800748445405E00448008840F40040FE
:101E40000249088010BD00000044004060000020EE
:101E50006004002010B540F225510E4800F001F951
:101E6000B0B10C4800F0B8F9C4B20B48008828287B
:101E700008DA094801880088401C074A1080074892
:101E8000445405E00448008840F4004002490880BA
:101E900010BD0000004800405A0000202002002031
:101EA00010B586B0044601210820FEF7A9FD0121E6
:101EB0008804FEF785FD294800F078F84FF480602B
:101EC000ADF8140003208DF8160018208DF81700C7
:101ED00005A92348FEF7EEFA4FF40060ADF81400B0
:101EE00004208DF8170005A91D48FEF7E3FA02202B
:101EF000ADF8140010208DF8170005A91848FEF75A
:101F0000D9FA01940020ADF80800ADF80A00ADF848
:101F10000C00ADF810000C20ADF80E0027208DF855
:101F2000000002208DF8010003208DF8020001203E
:101F30008DF803006846FEF75FFC01A9074800F032
:101F4000DFF8012240F22551044800F0B4F80121E5
:101F5000024800F01FF806B010BD00000048004025
:101F6000000C014070B505460E4600240CE0295DCA
:101F7000074800F036F900BF4021054800F064F83A
:101F80000028F9D0601CC4B2B442F0DB70BD000080
:101F90000048004021B1828942F40052828104E06D
:101FA00082894DF6FF731A408281704710B504464E
:101FB0002048844209D101218803FEF731FD002128
:101FC0004FF48040FEF72CFD32E01B48844209D1DB
:101FD00001214804FEF704FD00214FF40030FEF714
:101FE000FFFC25E01548844209D101218804FEF751
:101FF000F7FC00214FF48020FEF7F2FC18E01048B7
:10200000844209D10121C804FEF7EAFC00214FF403
:102010000020FEF7E5FC0BE00A48844208D10121CC
:102020000805FEF7DDFC00214FF48010FEF7D8FC18
:1020300010BD00000038014000440040004800404E
:10204000004C00400050004002460020B1F5007FE7
:1020500000D100BF13880B400BB1012000E000202D
:10206000704770B50246002400230025002040F68A
:102070006A16B14200D100BFC1F3421501F01F033F
:10208000012606FA03F3012D02D19689334006E0BA
:10209000022D02D1168A334001E0968A33400C1299
:1020A000012606FA04F41688344013B10CB101205D
:1020B00000E0002070BDF0B5034600240026002596
:1020C000002040F66A17B94200D100BF1846C1F39C
:1020D000421401F01F06012707FA06F5012C01D171
:1020E0000C3004E0022C01D1103000E014301AB1A1
:1020F00007682F43076002E00768AF430760F0BD41
:102100002DE9F04786B005460E460024A24600BFE2
:10211000A1460027B08900B100BF2F462C8A4CF69B
:10212000FF700440F08804432C82AC894EF6F31013
:102130000440B08831890843718908430443AC8165
:10214000AC8A4FF6FF400440B0890443AC8201A83A
:10215000FEF776FC1F48874202D1DDF810A001E0AF
:10216000DDF80CA0A88900F4004040B10AEBCA00D9
:1021700000EB0A1031684900B0FBF1F807E00AEB08
:10218000CA0000EB0A1031688900B0FBF1F8642046
:10219000B8FBF0F004012009642101FB1089A88933
:1021A00000F4004040B1322000EBC900B0FBF1F078
:1021B00000F00700044308E0322000EB091064211E
:1021C000B0FBF1F000F00F0004432C8106B0BDE835
:1021D000F08700000038014001468888C0F30800FD
:1021E0007047C1F308028280704700BFFEE710B558
:1021F0000446FEF72DFD20802088FEF7E9F9A08037
:10220000FEF7E2FC6080002010BD02E008C8121F4B
:1022100008C1002AFAD170477047002001E001C1CF
:10222000121F002AFBD1704710B56FF00400FFF7B2
:1022300019FC0A4800680A49B0FBF1F00949087026
:102240000846007800EB4001C1EBC0104FF6FF716B
:1022500001EAC0000449088010BD00000000002011
:1022600000127A0050000020520000200146114A5E
:1022700012884A434FF0E0235A6100229A611A46BD
:10228000126942F001021A6100BF4FF0E0221069AA
:1022900000F001021AB100F48032002AF5D04FF0AC
:1022A000E022126922F001024FF0E0231A610022BD
:1022B0009A617047520000200146114A12784A4341
:1022C0004FF0E0235A6100229A611A46126942F0E7
:1022D00001021A6100BF4FF0E022106900F0010214
:1022E0001AB100F48032002AF5D04FF0E0221269D2
:1022F00022F001024FF0E0231A6100229A61704738
:10230000500000200146002001B9012005E0421CD8
:10231000D0B20A2291FBF2F291B20029F7D17047B4
:102320002DE9F04104460D461646701EC7B2202224
:1023300031462846FDF72AFF00BF0A2094FBF0F142
:1023400000FB11403030C2B23846791ECFB22A5459
:102350000A2094FBF0F080B2041EEEDCBDE8F081B0
:1023600000202849088048808880274908804880C4
:10237000888026490880488088802549087025493A
:1023800008702549087025490870FFF74DFFFEF7D2
:10239000E3F94FF41650FEF7BDFBFEF7F7F940F2F4
:1023A00071210420FEF7ACF941F61F4141F287305C
:1023B000FFF714FC41F61F410846FFF7A4FB1FE09E
:1023C0001548007820B1002013490870FEF7EAFB99
:1023D0001248007820B1012805D0022809D105E073
:1023E000FFF702FA0BE0FFF77BFA08E0FFF73AFA93
:1023F00005E00020094908700649087000BF00BFC9
:10240000DEE700001A000020140000202000002059
:102410005C0000205D0000205F0000205E000020C6
:1024200020202020000000002020202000000000AC
:102430002020202000000000582400080000002078
:10244000580100001A030008FC240008580100206D
:10245000080800001A2200081184A24A0400092B6F
:10246000010203040607080929336937051302042A
:10247000060814AAA556400901011234B0A1380279
:1024800012605230124008122D2020D1EFB3BEBC92
:10249000E0B2E2CFB5CDB3200A200121835A55180E
:1024A0000ACEC220B6C83A20202D188FA1E6200AF5
:1024B000CAAA10580A2552480AD4EB20D2F4104870
:1024C0000A6462200A504D312E3010B80B75672F08
:1024D0006D33504D322E3510AB2031204EB7E720F2
:1024E000CBD9101E6D2F73200A105BCFF25019014B
:0C24F00029104BC1A6101BBCB610000048
:0400000508000131BD
:00000001FF
